{
	"data": {
		"bytecode": {
			"linkReferences": {},
			"object": "6080604052348015600e575f5ffd5b50335f5f6101000a81548173ffffffffffffffffffffffffffffffffffffffff021916908373ffffffffffffffffffffffffffffffffffffffff16021790555061180e8061005b5f395ff3fe608060405234801561000f575f5ffd5b5060043610610086575f3560e01c8063997d283011610059578063997d283014610111578063d2bd17381461012f578063ed950a5a1461014b578063f49a7a171461017f57610086565b80631750a3d01461008a578063372ee915146100a65780634bd46448146100c25780638da5cb5b146100f3575b5f5ffd5b6100a4600480360381019061009f9190610cca565b61019b565b005b6100c060048036038101906100bb9190610d57565b61033c565b005b6100dc60048036038101906100d79190610da7565b610639565b6040516100ea929190610e54565b60405180910390f35b6100fb610706565b6040516101089190610ec1565b60405180910390f35b61011961072a565b6040516101269190610eda565b60405180910390f35b61014960048036038101906101449190610ef3565b610730565b005b61016560048036038101906101609190610f31565b6108e7565b604051610176959493929190610f76565b60405180910390f35b61019960048036038101906101949190610fce565b6109c3565b005b5f5f9054906101000a900473ffffffffffffffffffffffffffffffffffffffff1673ffffffffffffffffffffffffffffffffffffffff163373ffffffffffffffffffffffffffffffffffffffff1614610229576040517f08c379a000000000000000000000000000000000000000000000000000000000815260040161022090611084565b60405180910390fd5b5f60025f8481526020019081526020015f2090505f815f015403610282576040517f08c379a0000000000000000000000000000000000000000000000000000000008152600401610279906110ec565b60405180910390fd5b806005015f81548092919061029690611137565b91905055505f8160050154905060405180606001604052808281526020018481526020015f815250826006015f8381526020019081526020015f205f820151815f015560208201518160010190816102ee919061137b565b5060408201518160020155905050837fed8911b3df733b7d5f75724158e54478ea12e30f49c9d31b5261879f5b76586f828560405161032e92919061144a565b60405180910390a250505050565b5f5f9054906101000a900473ffffffffffffffffffffffffffffffffffffffff1673ffffffffffffffffffffffffffffffffffffffff163373ffffffffffffffffffffffffffffffffffffffff16146103ca576040517f08c379a00000000000000000000000000000000000000000000000000000000081526004016103c190611084565b60405180910390fd5b5f60025f8581526020019081526020015f209050806002015f9054906101000a900460ff1661042e576040517f08c379a0000000000000000000000000000000000000000000000000000000008152600401610425906114c2565b60405180910390fd5b8060030154421015610475576040517f08c379a000000000000000000000000000000000000000000000000000000000815260040161046c9061152a565b60405180910390fd5b80600401544211156104bc576040517f08c379a00000000000000000000000000000000000000000000000000000000081526004016104b390611592565b60405180910390fd5b5f816007015f8581526020019081526020015f209050805f015f9054906101000a900460ff16610521576040517f08c379a0000000000000000000000000000000000000000000000000000000008152600401610518906115fa565b60405180910390fd5b805f0160019054906101000a900460ff1615610572576040517f08c379a000000000000000000000000000000000000000000000000000000000815260040161056990611662565b60405180910390fd5b5f826006015f8581526020019081526020015f2090505f815f0154036105cd576040517f08c379a00000000000000000000000000000000000000000000000000000000081526004016105c4906116ca565b60405180910390fd5b6001825f0160016101000a81548160ff021916908315150217905550806002015f8154809291906105fd90611137565b91905055508385877f2d5d5adff759341f1e2cc20cd5f911101d22fae5437742e48892ad7c1fd5316b60405160405180910390a4505050505050565b60605f5f60025f8681526020019081526020015f2090505f816006015f8681526020019081526020015f20905080600101816002015481805461067b906111ab565b80601f01602080910402602001604051908101604052809291908181526020018280546106a7906111ab565b80156106f25780601f106106c9576101008083540402835291602001916106f2565b820191905f5260205f20905b8154815290600101906020018083116106d557829003601f168201915b505050505091509350935050509250929050565b5f5f9054906101000a900473ffffffffffffffffffffffffffffffffffffffff1681565b60015481565b5f5f9054906101000a900473ffffffffffffffffffffffffffffffffffffffff1673ffffffffffffffffffffffffffffffffffffffff163373ffffffffffffffffffffffffffffffffffffffff16146107be576040517f08c379a00000000000000000000000000000000000000000000000000000000081526004016107b590611084565b60405180910390fd5b5f60025f8481526020019081526020015f2090505f815f015403610817576040517f08c379a000000000000000000000000000000000000000000000000000000000815260040161080e906110ec565b60405180910390fd5b5f816007015f8481526020019081526020015f209050805f015f9054906101000a900460ff161561087d576040517f08c379a000000000000000000000000000000000000000000000000000000000815260040161087490611732565b60405180910390fd5b6001815f015f6101000a81548160ff0219169083151502179055505f815f0160016101000a81548160ff02191690831515021790555082847f88397ca29fc5c538acf0b75368dabb4bf129672863fcb65574b0b8964b3af88f60405160405180910390a350505050565b60605f5f5f5f5f60025f8881526020019081526020015f20905080600101816002015f9054906101000a900460ff16826003015483600401548460050154848054610931906111ab565b80601f016020809104026020016040519081016040528092919081815260200182805461095d906111ab565b80156109a85780601f1061097f576101008083540402835291602001916109a8565b820191905f5260205f20905b81548152906001019060200180831161098b57829003601f168201915b50505050509450955095509550955095505091939590929450565b5f5f9054906101000a900473ffffffffffffffffffffffffffffffffffffffff1673ffffffffffffffffffffffffffffffffffffffff163373ffffffffffffffffffffffffffffffffffffffff1614610a51576040517f08c379a0000000000000000000000000000000000000000000000000000000008152600401610a4890611084565b60405180910390fd5b818111610a93576040517f08c379a0000000000000000000000000000000000000000000000000000000008152600401610a8a9061179a565b60405180910390fd5b60015f815480929190610aa590611137565b91905055505f60025f60015481526020019081526020015f209050600154815f018190555083816001019081610adb919061137b565b508281600301819055508181600401819055506001816002015f6101000a81548160ff0219169083151502179055506001547f52be7c4e77b4de76b7607d621492061fe13b58597e72dfb5e51ab8f6187ed14185604051610b3c91906117b8565b60405180910390a250505050565b5f604051905090565b5f5ffd5b5f5ffd5b5f819050919050565b610b6d81610b5b565b8114610b77575f5ffd5b50565b5f81359050610b8881610b64565b92915050565b5f5ffd5b5f5ffd5b5f601f19601f8301169050919050565b7f4e487b71000000000000000000000000000000000000000000000000000000005f52604160045260245ffd5b610bdc82610b96565b810181811067ffffffffffffffff82111715610bfb57610bfa610ba6565b5b80604052505050565b5f610c0d610b4a565b9050610c198282610bd3565b919050565b5f67ffffffffffffffff821115610c3857610c37610ba6565b5b610c4182610b96565b9050602081019050919050565b828183375f83830152505050565b5f610c6e610c6984610c1e565b610c04565b905082815260208101848484011115610c8a57610c89610b92565b5b610c95848285610c4e565b509392505050565b5f82601f830112610cb157610cb0610b8e565b5b8135610cc1848260208601610c5c565b91505092915050565b5f5f60408385031215610ce057610cdf610b53565b5b5f610ced85828601610b7a565b925050602083013567ffffffffffffffff811115610d0e57610d0d610b57565b5b610d1a85828601610c9d565b9150509250929050565b5f819050919050565b610d3681610d24565b8114610d40575f5ffd5b50565b5f81359050610d5181610d2d565b92915050565b5f5f5f60608486031215610d6e57610d6d610b53565b5b5f610d7b86828701610b7a565b9350506020610d8c86828701610d43565b9250506040610d9d86828701610b7a565b9150509250925092565b5f5f60408385031215610dbd57610dbc610b53565b5b5f610dca85828601610b7a565b9250506020610ddb85828601610b7a565b9150509250929050565b5f81519050919050565b5f82825260208201905092915050565b8281835e5f83830152505050565b5f610e1782610de5565b610e218185610def565b9350610e31818560208601610dff565b610e3a81610b96565b840191505092915050565b610e4e81610b5b565b82525050565b5f6040820190508181035f830152610e6c8185610e0d565b9050610e7b6020830184610e45565b9392505050565b5f73ffffffffffffffffffffffffffffffffffffffff82169050919050565b5f610eab82610e82565b9050919050565b610ebb81610ea1565b82525050565b5f602082019050610ed45f830184610eb2565b92915050565b5f602082019050610eed5f830184610e45565b92915050565b5f5f60408385031215610f0957610f08610b53565b5b5f610f1685828601610b7a565b9250506020610f2785828601610d43565b9150509250929050565b5f60208284031215610f4657610f45610b53565b5b5f610f5384828501610b7a565b91505092915050565b5f8115159050919050565b610f7081610f5c565b82525050565b5f60a0820190508181035f830152610f8e8188610e0d565b9050610f9d6020830187610f67565b610faa6040830186610e45565b610fb76060830185610e45565b610fc46080830184610e45565b9695505050505050565b5f5f5f60608486031215610fe557610fe4610b53565b5b5f84013567ffffffffffffffff81111561100257611001610b57565b5b61100e86828701610c9d565b935050602061101f86828701610b7a565b925050604061103086828701610b7a565b9150509250925092565b7f4e6f7420617574686f72697a65640000000000000000000000000000000000005f82015250565b5f61106e600e83610def565b91506110798261103a565b602082019050919050565b5f6020820190508181035f83015261109b81611062565b9050919050565b7f456c656374696f6e206e6f7420666f756e6400000000000000000000000000005f82015250565b5f6110d6601283610def565b91506110e1826110a2565b602082019050919050565b5f6020820190508181035f830152611103816110ca565b9050919050565b7f4e487b71000000000000000000000000000000000000000000000000000000005f52601160045260245ffd5b5f61114182610b5b565b91507fffffffffffffffffffffffffffffffffffffffffffffffffffffffffffffffff82036111735761117261110a565b5b600182019050919050565b7f4e487b71000000000000000000000000000000000000000000000000000000005f52602260045260245ffd5b5f60028204905060018216806111c257607f821691505b6020821081036111d5576111d461117e565b5b50919050565b5f819050815f5260205f209050919050565b5f6020601f8301049050919050565b5f82821b905092915050565b5f600883026112377fffffffffffffffffffffffffffffffffffffffffffffffffffffffffffffffff826111fc565b61124186836111fc565b95508019841693508086168417925050509392505050565b5f819050919050565b5f61127c61127761127284610b5b565b611259565b610b5b565b9050919050565b5f819050919050565b61129583611262565b6112a96112a182611283565b848454611208565b825550505050565b5f5f905090565b6112c06112b1565b6112cb81848461128c565b505050565b5b818110156112ee576112e35f826112b8565b6001810190506112d1565b5050565b601f82111561133357611304816111db565b61130d846111ed565b8101602085101561131c578190505b611330611328856111ed565b8301826112d0565b50505b505050565b5f82821c905092915050565b5f6113535f1984600802611338565b1980831691505092915050565b5f61136b8383611344565b9150826002028217905092915050565b61138482610de5565b67ffffffffffffffff81111561139d5761139c610ba6565b5b6113a782546111ab565b6113b28282856112f2565b5f60209050601f8311600181146113e3575f84156113d1578287015190505b6113db8582611360565b865550611442565b601f1984166113f1866111db565b5f5b82811015611418578489015182556001820191506020850194506020810190506113f3565b868310156114355784890151611431601f891682611344565b8355505b6001600288020188555050505b505050505050565b5f60408201905061145d5f830185610e45565b818103602083015261146f8184610e0d565b90509392505050565b7f456c656374696f6e20696e6163746976650000000000000000000000000000005f82015250565b5f6114ac601183610def565b91506114b782611478565b602082019050919050565b5f6020820190508181035f8301526114d9816114a0565b9050919050565b7f566f74696e67206e6f74207374617274656400000000000000000000000000005f82015250565b5f611514601283610def565b915061151f826114e0565b602082019050919050565b5f6020820190508181035f83015261154181611508565b9050919050565b7f566f74696e6720656e64656400000000000000000000000000000000000000005f82015250565b5f61157c600c83610def565b915061158782611548565b602082019050919050565b5f6020820190508181035f8301526115a981611570565b9050919050565b7f4e6f7420726567697374657265640000000000000000000000000000000000005f82015250565b5f6115e4600e83610def565b91506115ef826115b0565b602082019050919050565b5f6020820190508181035f830152611611816115d8565b9050919050565b7f416c726561647920766f746564000000000000000000000000000000000000005f82015250565b5f61164c600d83610def565b915061165782611618565b602082019050919050565b5f6020820190508181035f83015261167981611640565b9050919050565b7f43616e646964617465206e6f7420666f756e64000000000000000000000000005f82015250565b5f6116b4601383610def565b91506116bf82611680565b602082019050919050565b5f6020820190508181035f8301526116e1816116a8565b9050919050565b7f566f74657220616c7265616479207265676973746572656400000000000000005f82015250565b5f61171c601883610def565b9150611727826116e8565b602082019050919050565b5f6020820190508181035f83015261174981611710565b9050919050565b7f496e76616c69642074696d652072616e676500000000000000000000000000005f82015250565b5f611784601283610def565b915061178f82611750565b602082019050919050565b5f6020820190508181035f8301526117b181611778565b9050919050565b5f6020820190508181035f8301526117d08184610e0d565b90509291505056fea264697066735822122058cb44ceee0b6969a6cfa19e14bd9f0cc722d301afae5cbacc010bdca692866c64736f6c634300081e0033",
			"opcodes": "PUSH1 0x80 PUSH1 0x40 MSTORE CALLVALUE DUP1 ISZERO PUSH1 0xE JUMPI PUSH0 PUSH0 REVERT JUMPDEST POP CALLER PUSH0 PUSH0 PUSH2 0x100 EXP DUP2 SLOAD DUP2 PUSH20 0xFFFFFFFFFFFFFFFFFFFFFFFFFFFFFFFFFFFFFFFF MUL NOT AND SWAP1 DUP4 PUSH20 0xFFFFFFFFFFFFFFFFFFFFFFFFFFFFFFFFFFFFFFFF AND MUL OR SWAP1 SSTORE POP PUSH2 0x180E DUP1 PUSH2 0x5B PUSH0 CODECOPY PUSH0 RETURN INVALID PUSH1 0x80 PUSH1 0x40 MSTORE CALLVALUE DUP1 ISZERO PUSH2 0xF JUMPI PUSH0 PUSH0 REVERT JUMPDEST POP PUSH1 0x4 CALLDATASIZE LT PUSH2 0x86 JUMPI PUSH0 CALLDATALOAD PUSH1 0xE0 SHR DUP1 PUSH4 0x997D2830 GT PUSH2 0x59 JUMPI DUP1 PUSH4 0x997D2830 EQ PUSH2 0x111 JUMPI DUP1 PUSH4 0xD2BD1738 EQ PUSH2 0x12F JUMPI DUP1 PUSH4 0xED950A5A EQ PUSH2 0x14B JUMPI DUP1 PUSH4 0xF49A7A17 EQ PUSH2 0x17F JUMPI PUSH2 0x86 JUMP JUMPDEST DUP1 PUSH4 0x1750A3D0 EQ PUSH2 0x8A JUMPI DUP1 PUSH4 0x372EE915 EQ PUSH2 0xA6 JUMPI DUP1 PUSH4 0x4BD46448 EQ PUSH2 0xC2 JUMPI DUP1 PUSH4 0x8DA5CB5B EQ PUSH2 0xF3 JUMPI JUMPDEST PUSH0 PUSH0 REVERT JUMPDEST PUSH2 0xA4 PUSH1 0x4 DUP1 CALLDATASIZE SUB DUP2 ADD SWAP1 PUSH2 0x9F SWAP2 SWAP1 PUSH2 0xCCA JUMP JUMPDEST PUSH2 0x19B JUMP JUMPDEST STOP JUMPDEST PUSH2 0xC0 PUSH1 0x4 DUP1 CALLDATASIZE SUB DUP2 ADD SWAP1 PUSH2 0xBB SWAP2 SWAP1 PUSH2 0xD57 JUMP JUMPDEST PUSH2 0x33C JUMP JUMPDEST STOP JUMPDEST PUSH2 0xDC PUSH1 0x4 DUP1 CALLDATASIZE SUB DUP2 ADD SWAP1 PUSH2 0xD7 SWAP2 SWAP1 PUSH2 0xDA7 JUMP JUMPDEST PUSH2 0x639 JUMP JUMPDEST PUSH1 0x40 MLOAD PUSH2 0xEA SWAP3 SWAP2 SWAP1 PUSH2 0xE54 JUMP JUMPDEST PUSH1 0x40 MLOAD DUP1 SWAP2 SUB SWAP1 RETURN JUMPDEST PUSH2 0xFB PUSH2 0x706 JUMP JUMPDEST PUSH1 0x40 MLOAD PUSH2 0x108 SWAP2 SWAP1 PUSH2 0xEC1 JUMP JUMPDEST PUSH1 0x40 MLOAD DUP1 SWAP2 SUB SWAP1 RETURN JUMPDEST PUSH2 0x119 PUSH2 0x72A JUMP JUMPDEST PUSH1 0x40 MLOAD PUSH2 0x126 SWAP2 SWAP1 PUSH2 0xEDA JUMP JUMPDEST PUSH1 0x40 MLOAD DUP1 SWAP2 SUB SWAP1 RETURN JUMPDEST PUSH2 0x149 PUSH1 0x4 DUP1 CALLDATASIZE SUB DUP2 ADD SWAP1 PUSH2 0x144 SWAP2 SWAP1 PUSH2 0xEF3 JUMP JUMPDEST PUSH2 0x730 JUMP JUMPDEST STOP JUMPDEST PUSH2 0x165 PUSH1 0x4 DUP1 CALLDATASIZE SUB DUP2 ADD SWAP1 PUSH2 0x160 SWAP2 SWAP1 PUSH2 0xF31 JUMP JUMPDEST PUSH2 0x8E7 JUMP JUMPDEST PUSH1 0x40 MLOAD PUSH2 0x176 SWAP6 SWAP5 SWAP4 SWAP3 SWAP2 SWAP1 PUSH2 0xF76 JUMP JUMPDEST PUSH1 0x40 MLOAD DUP1 SWAP2 SUB SWAP1 RETURN JUMPDEST PUSH2 0x199 PUSH1 0x4 DUP1 CALLDATASIZE SUB DUP2 ADD SWAP1 PUSH2 0x194 SWAP2 SWAP1 PUSH2 0xFCE JUMP JUMPDEST PUSH2 0x9C3 JUMP JUMPDEST STOP JUMPDEST PUSH0 PUSH0 SWAP1 SLOAD SWAP1 PUSH2 0x100 EXP SWAP1 DIV PUSH20 0xFFFFFFFFFFFFFFFFFFFFFFFFFFFFFFFFFFFFFFFF AND PUSH20 0xFFFFFFFFFFFFFFFFFFFFFFFFFFFFFFFFFFFFFFFF AND CALLER PUSH20 0xFFFFFFFFFFFFFFFFFFFFFFFFFFFFFFFFFFFFFFFF AND EQ PUSH2 0x229 JUMPI PUSH1 0x40 MLOAD PUSH32 0x8C379A000000000000000000000000000000000000000000000000000000000 DUP2 MSTORE PUSH1 0x4 ADD PUSH2 0x220 SWAP1 PUSH2 0x1084 JUMP JUMPDEST PUSH1 0x40 MLOAD DUP1 SWAP2 SUB SWAP1 REVERT JUMPDEST PUSH0 PUSH1 0x2 PUSH0 DUP5 DUP2 MSTORE PUSH1 0x20 ADD SWAP1 DUP2 MSTORE PUSH1 0x20 ADD PUSH0 KECCAK256 SWAP1 POP PUSH0 DUP2 PUSH0 ADD SLOAD SUB PUSH2 0x282 JUMPI PUSH1 0x40 MLOAD PUSH32 0x8C379A000000000000000000000000000000000000000000000000000000000 DUP2 MSTORE PUSH1 0x4 ADD PUSH2 0x279 SWAP1 PUSH2 0x10EC JUMP JUMPDEST PUSH1 0x40 MLOAD DUP1 SWAP2 SUB SWAP1 REVERT JUMPDEST DUP1 PUSH1 0x5 ADD PUSH0 DUP2 SLOAD DUP1 SWAP3 SWAP2 SWAP1 PUSH2 0x296 SWAP1 PUSH2 0x1137 JUMP JUMPDEST SWAP2 SWAP1 POP SSTORE POP PUSH0 DUP2 PUSH1 0x5 ADD SLOAD SWAP1 POP PUSH1 0x40 MLOAD DUP1 PUSH1 0x60 ADD PUSH1 0x40 MSTORE DUP1 DUP3 DUP2 MSTORE PUSH1 0x20 ADD DUP5 DUP2 MSTORE PUSH1 0x20 ADD PUSH0 DUP2 MSTORE POP DUP3 PUSH1 0x6 ADD PUSH0 DUP4 DUP2 MSTORE PUSH1 0x20 ADD SWAP1 DUP2 MSTORE PUSH1 0x20 ADD PUSH0 KECCAK256 PUSH0 DUP3 ADD MLOAD DUP2 PUSH0 ADD SSTORE PUSH1 0x20 DUP3 ADD MLOAD DUP2 PUSH1 0x1 ADD SWAP1 DUP2 PUSH2 0x2EE SWAP2 SWAP1 PUSH2 0x137B JUMP JUMPDEST POP PUSH1 0x40 DUP3 ADD MLOAD DUP2 PUSH1 0x2 ADD SSTORE SWAP1 POP POP DUP4 PUSH32 0xED8911B3DF733B7D5F75724158E54478EA12E30F49C9D31B5261879F5B76586F DUP3 DUP6 PUSH1 0x40 MLOAD PUSH2 0x32E SWAP3 SWAP2 SWAP1 PUSH2 0x144A JUMP JUMPDEST PUSH1 0x40 MLOAD DUP1 SWAP2 SUB SWAP1 LOG2 POP POP POP POP JUMP JUMPDEST PUSH0 PUSH0 SWAP1 SLOAD SWAP1 PUSH2 0x100 EXP SWAP1 DIV PUSH20 0xFFFFFFFFFFFFFFFFFFFFFFFFFFFFFFFFFFFFFFFF AND PUSH20 0xFFFFFFFFFFFFFFFFFFFFFFFFFFFFFFFFFFFFFFFF AND CALLER PUSH20 0xFFFFFFFFFFFFFFFFFFFFFFFFFFFFFFFFFFFFFFFF AND EQ PUSH2 0x3CA JUMPI PUSH1 0x40 MLOAD PUSH32 0x8C379A000000000000000000000000000000000000000000000000000000000 DUP2 MSTORE PUSH1 0x4 ADD PUSH2 0x3C1 SWAP1 PUSH2 0x1084 JUMP JUMPDEST PUSH1 0x40 MLOAD DUP1 SWAP2 SUB SWAP1 REVERT JUMPDEST PUSH0 PUSH1 0x2 PUSH0 DUP6 DUP2 MSTORE PUSH1 0x20 ADD SWAP1 DUP2 MSTORE PUSH1 0x20 ADD PUSH0 KECCAK256 SWAP1 POP DUP1 PUSH1 0x2 ADD PUSH0 SWAP1 SLOAD SWAP1 PUSH2 0x100 EXP SWAP1 DIV PUSH1 0xFF AND PUSH2 0x42E JUMPI PUSH1 0x40 MLOAD PUSH32 0x8C379A000000000000000000000000000000000000000000000000000000000 DUP2 MSTORE PUSH1 0x4 ADD PUSH2 0x425 SWAP1 PUSH2 0x14C2 JUMP JUMPDEST PUSH1 0x40 MLOAD DUP1 SWAP2 SUB SWAP1 REVERT JUMPDEST DUP1 PUSH1 0x3 ADD SLOAD TIMESTAMP LT ISZERO PUSH2 0x475 JUMPI PUSH1 0x40 MLOAD PUSH32 0x8C379A000000000000000000000000000000000000000000000000000000000 DUP2 MSTORE PUSH1 0x4 ADD PUSH2 0x46C SWAP1 PUSH2 0x152A JUMP JUMPDEST PUSH1 0x40 MLOAD DUP1 SWAP2 SUB SWAP1 REVERT JUMPDEST DUP1 PUSH1 0x4 ADD SLOAD TIMESTAMP GT ISZERO PUSH2 0x4BC JUMPI PUSH1 0x40 MLOAD PUSH32 0x8C379A000000000000000000000000000000000000000000000000000000000 DUP2 MSTORE PUSH1 0x4 ADD PUSH2 0x4B3 SWAP1 PUSH2 0x1592 JUMP JUMPDEST PUSH1 0x40 MLOAD DUP1 SWAP2 SUB SWAP1 REVERT JUMPDEST PUSH0 DUP2 PUSH1 0x7 ADD PUSH0 DUP6 DUP2 MSTORE PUSH1 0x20 ADD SWAP1 DUP2 MSTORE PUSH1 0x20 ADD PUSH0 KECCAK256 SWAP1 POP DUP1 PUSH0 ADD PUSH0 SWAP1 SLOAD SWAP1 PUSH2 0x100 EXP SWAP1 DIV PUSH1 0xFF AND PUSH2 0x521 JUMPI PUSH1 0x40 MLOAD PUSH32 0x8C379A000000000000000000000000000000000000000000000000000000000 DUP2 MSTORE PUSH1 0x4 ADD PUSH2 0x518 SWAP1 PUSH2 0x15FA JUMP JUMPDEST PUSH1 0x40 MLOAD DUP1 SWAP2 SUB SWAP1 REVERT JUMPDEST DUP1 PUSH0 ADD PUSH1 0x1 SWAP1 SLOAD SWAP1 PUSH2 0x100 EXP SWAP1 DIV PUSH1 0xFF AND ISZERO PUSH2 0x572 JUMPI PUSH1 0x40 MLOAD PUSH32 0x8C379A000000000000000000000000000000000000000000000000000000000 DUP2 MSTORE PUSH1 0x4 ADD PUSH2 0x569 SWAP1 PUSH2 0x1662 JUMP JUMPDEST PUSH1 0x40 MLOAD DUP1 SWAP2 SUB SWAP1 REVERT JUMPDEST PUSH0 DUP3 PUSH1 0x6 ADD PUSH0 DUP6 DUP2 MSTORE PUSH1 0x20 ADD SWAP1 DUP2 MSTORE PUSH1 0x20 ADD PUSH0 KECCAK256 SWAP1 POP PUSH0 DUP2 PUSH0 ADD SLOAD SUB PUSH2 0x5CD JUMPI PUSH1 0x40 MLOAD PUSH32 0x8C379A000000000000000000000000000000000000000000000000000000000 DUP2 MSTORE PUSH1 0x4 ADD PUSH2 0x5C4 SWAP1 PUSH2 0x16CA JUMP JUMPDEST PUSH1 0x40 MLOAD DUP1 SWAP2 SUB SWAP1 REVERT JUMPDEST PUSH1 0x1 DUP3 PUSH0 ADD PUSH1 0x1 PUSH2 0x100 EXP DUP2 SLOAD DUP2 PUSH1 0xFF MUL NOT AND SWAP1 DUP4 ISZERO ISZERO MUL OR SWAP1 SSTORE POP DUP1 PUSH1 0x2 ADD PUSH0 DUP2 SLOAD DUP1 SWAP3 SWAP2 SWAP1 PUSH2 0x5FD SWAP1 PUSH2 0x1137 JUMP JUMPDEST SWAP2 SWAP1 POP SSTORE POP DUP4 DUP6 DUP8 PUSH32 0x2D5D5ADFF759341F1E2CC20CD5F911101D22FAE5437742E48892AD7C1FD5316B PUSH1 0x40 MLOAD PUSH1 0x40 MLOAD DUP1 SWAP2 SUB SWAP1 LOG4 POP POP POP POP POP POP JUMP JUMPDEST PUSH1 0x60 PUSH0 PUSH0 PUSH1 0x2 PUSH0 DUP7 DUP2 MSTORE PUSH1 0x20 ADD SWAP1 DUP2 MSTORE PUSH1 0x20 ADD PUSH0 KECCAK256 SWAP1 POP PUSH0 DUP2 PUSH1 0x6 ADD PUSH0 DUP7 DUP2 MSTORE PUSH1 0x20 ADD SWAP1 DUP2 MSTORE PUSH1 0x20 ADD PUSH0 KECCAK256 SWAP1 POP DUP1 PUSH1 0x1 ADD DUP2 PUSH1 0x2 ADD SLOAD DUP2 DUP1 SLOAD PUSH2 0x67B SWAP1 PUSH2 0x11AB JUMP JUMPDEST DUP1 PUSH1 0x1F ADD PUSH1 0x20 DUP1 SWAP2 DIV MUL PUSH1 0x20 ADD PUSH1 0x40 MLOAD SWAP1 DUP2 ADD PUSH1 0x40 MSTORE DUP1 SWAP3 SWAP2 SWAP1 DUP2 DUP2 MSTORE PUSH1 0x20 ADD DUP3 DUP1 SLOAD PUSH2 0x6A7 SWAP1 PUSH2 0x11AB JUMP JUMPDEST DUP1 ISZERO PUSH2 0x6F2 JUMPI DUP1 PUSH1 0x1F LT PUSH2 0x6C9 JUMPI PUSH2 0x100 DUP1 DUP4 SLOAD DIV MUL DUP4 MSTORE SWAP2 PUSH1 0x20 ADD SWAP2 PUSH2 0x6F2 JUMP JUMPDEST DUP3 ADD SWAP2 SWAP1 PUSH0 MSTORE PUSH1 0x20 PUSH0 KECCAK256 SWAP1 JUMPDEST DUP2 SLOAD DUP2 MSTORE SWAP1 PUSH1 0x1 ADD SWAP1 PUSH1 0x20 ADD DUP1 DUP4 GT PUSH2 0x6D5 JUMPI DUP3 SWAP1 SUB PUSH1 0x1F AND DUP3 ADD SWAP2 JUMPDEST POP POP POP POP POP SWAP2 POP SWAP4 POP SWAP4 POP POP POP SWAP3 POP SWAP3 SWAP1 POP JUMP JUMPDEST PUSH0 PUSH0 SWAP1 SLOAD SWAP1 PUSH2 0x100 EXP SWAP1 DIV PUSH20 0xFFFFFFFFFFFFFFFFFFFFFFFFFFFFFFFFFFFFFFFF AND DUP2 JUMP JUMPDEST PUSH1 0x1 SLOAD DUP2 JUMP JUMPDEST PUSH0 PUSH0 SWAP1 SLOAD SWAP1 PUSH2 0x100 EXP SWAP1 DIV PUSH20 0xFFFFFFFFFFFFFFFFFFFFFFFFFFFFFFFFFFFFFFFF AND PUSH20 0xFFFFFFFFFFFFFFFFFFFFFFFFFFFFFFFFFFFFFFFF AND CALLER PUSH20 0xFFFFFFFFFFFFFFFFFFFFFFFFFFFFFFFFFFFFFFFF AND EQ PUSH2 0x7BE JUMPI PUSH1 0x40 MLOAD PUSH32 0x8C379A000000000000000000000000000000000000000000000000000000000 DUP2 MSTORE PUSH1 0x4 ADD PUSH2 0x7B5 SWAP1 PUSH2 0x1084 JUMP JUMPDEST PUSH1 0x40 MLOAD DUP1 SWAP2 SUB SWAP1 REVERT JUMPDEST PUSH0 PUSH1 0x2 PUSH0 DUP5 DUP2 MSTORE PUSH1 0x20 ADD SWAP1 DUP2 MSTORE PUSH1 0x20 ADD PUSH0 KECCAK256 SWAP1 POP PUSH0 DUP2 PUSH0 ADD SLOAD SUB PUSH2 0x817 JUMPI PUSH1 0x40 MLOAD PUSH32 0x8C379A000000000000000000000000000000000000000000000000000000000 DUP2 MSTORE PUSH1 0x4 ADD PUSH2 0x80E SWAP1 PUSH2 0x10EC JUMP JUMPDEST PUSH1 0x40 MLOAD DUP1 SWAP2 SUB SWAP1 REVERT JUMPDEST PUSH0 DUP2 PUSH1 0x7 ADD PUSH0 DUP5 DUP2 MSTORE PUSH1 0x20 ADD SWAP1 DUP2 MSTORE PUSH1 0x20 ADD PUSH0 KECCAK256 SWAP1 POP DUP1 PUSH0 ADD PUSH0 SWAP1 SLOAD SWAP1 PUSH2 0x100 EXP SWAP1 DIV PUSH1 0xFF AND ISZERO PUSH2 0x87D JUMPI PUSH1 0x40 MLOAD PUSH32 0x8C379A000000000000000000000000000000000000000000000000000000000 DUP2 MSTORE PUSH1 0x4 ADD PUSH2 0x874 SWAP1 PUSH2 0x1732 JUMP JUMPDEST PUSH1 0x40 MLOAD DUP1 SWAP2 SUB SWAP1 REVERT JUMPDEST PUSH1 0x1 DUP2 PUSH0 ADD PUSH0 PUSH2 0x100 EXP DUP2 SLOAD DUP2 PUSH1 0xFF MUL NOT AND SWAP1 DUP4 ISZERO ISZERO MUL OR SWAP1 SSTORE POP PUSH0 DUP2 PUSH0 ADD PUSH1 0x1 PUSH2 0x100 EXP DUP2 SLOAD DUP2 PUSH1 0xFF MUL NOT AND SWAP1 DUP4 ISZERO ISZERO MUL OR SWAP1 SSTORE POP DUP3 DUP5 PUSH32 0x88397CA29FC5C538ACF0B75368DABB4BF129672863FCB65574B0B8964B3AF88F PUSH1 0x40 MLOAD PUSH1 0x40 MLOAD DUP1 SWAP2 SUB SWAP1 LOG3 POP POP POP POP JUMP JUMPDEST PUSH1 0x60 PUSH0 PUSH0 PUSH0 PUSH0 PUSH0 PUSH1 0x2 PUSH0 DUP9 DUP2 MSTORE PUSH1 0x20 ADD SWAP1 DUP2 MSTORE PUSH1 0x20 ADD PUSH0 KECCAK256 SWAP1 POP DUP1 PUSH1 0x1 ADD DUP2 PUSH1 0x2 ADD PUSH0 SWAP1 SLOAD SWAP1 PUSH2 0x100 EXP SWAP1 DIV PUSH1 0xFF AND DUP3 PUSH1 0x3 ADD SLOAD DUP4 PUSH1 0x4 ADD SLOAD DUP5 PUSH1 0x5 ADD SLOAD DUP5 DUP1 SLOAD PUSH2 0x931 SWAP1 PUSH2 0x11AB JUMP JUMPDEST DUP1 PUSH1 0x1F ADD PUSH1 0x20 DUP1 SWAP2 DIV MUL PUSH1 0x20 ADD PUSH1 0x40 MLOAD SWAP1 DUP2 ADD PUSH1 0x40 MSTORE DUP1 SWAP3 SWAP2 SWAP1 DUP2 DUP2 MSTORE PUSH1 0x20 ADD DUP3 DUP1 SLOAD PUSH2 0x95D SWAP1 PUSH2 0x11AB JUMP JUMPDEST DUP1 ISZERO PUSH2 0x9A8 JUMPI DUP1 PUSH1 0x1F LT PUSH2 0x97F JUMPI PUSH2 0x100 DUP1 DUP4 SLOAD DIV MUL DUP4 MSTORE SWAP2 PUSH1 0x20 ADD SWAP2 PUSH2 0x9A8 JUMP JUMPDEST DUP3 ADD SWAP2 SWAP1 PUSH0 MSTORE PUSH1 0x20 PUSH0 KECCAK256 SWAP1 JUMPDEST DUP2 SLOAD DUP2 MSTORE SWAP1 PUSH1 0x1 ADD SWAP1 PUSH1 0x20 ADD DUP1 DUP4 GT PUSH2 0x98B JUMPI DUP3 SWAP1 SUB PUSH1 0x1F AND DUP3 ADD SWAP2 JUMPDEST POP POP POP POP POP SWAP5 POP SWAP6 POP SWAP6 POP SWAP6 POP SWAP6 POP SWAP6 POP POP SWAP2 SWAP4 SWAP6 SWAP1 SWAP3 SWAP5 POP JUMP JUMPDEST PUSH0 PUSH0 SWAP1 SLOAD SWAP1 PUSH2 0x100 EXP SWAP1 DIV PUSH20 0xFFFFFFFFFFFFFFFFFFFFFFFFFFFFFFFFFFFFFFFF AND PUSH20 0xFFFFFFFFFFFFFFFFFFFFFFFFFFFFFFFFFFFFFFFF AND CALLER PUSH20 0xFFFFFFFFFFFFFFFFFFFFFFFFFFFFFFFFFFFFFFFF AND EQ PUSH2 0xA51 JUMPI PUSH1 0x40 MLOAD PUSH32 0x8C379A000000000000000000000000000000000000000000000000000000000 DUP2 MSTORE PUSH1 0x4 ADD PUSH2 0xA48 SWAP1 PUSH2 0x1084 JUMP JUMPDEST PUSH1 0x40 MLOAD DUP1 SWAP2 SUB SWAP1 REVERT JUMPDEST DUP2 DUP2 GT PUSH2 0xA93 JUMPI PUSH1 0x40 MLOAD PUSH32 0x8C379A000000000000000000000000000000000000000000000000000000000 DUP2 MSTORE PUSH1 0x4 ADD PUSH2 0xA8A SWAP1 PUSH2 0x179A JUMP JUMPDEST PUSH1 0x40 MLOAD DUP1 SWAP2 SUB SWAP1 REVERT JUMPDEST PUSH1 0x1 PUSH0 DUP2 SLOAD DUP1 SWAP3 SWAP2 SWAP1 PUSH2 0xAA5 SWAP1 PUSH2 0x1137 JUMP JUMPDEST SWAP2 SWAP1 POP SSTORE POP PUSH0 PUSH1 0x2 PUSH0 PUSH1 0x1 SLOAD DUP2 MSTORE PUSH1 0x20 ADD SWAP1 DUP2 MSTORE PUSH1 0x20 ADD PUSH0 KECCAK256 SWAP1 POP PUSH1 0x1 SLOAD DUP2 PUSH0 ADD DUP2 SWAP1 SSTORE POP DUP4 DUP2 PUSH1 0x1 ADD SWAP1 DUP2 PUSH2 0xADB SWAP2 SWAP1 PUSH2 0x137B JUMP JUMPDEST POP DUP3 DUP2 PUSH1 0x3 ADD DUP2 SWAP1 SSTORE POP DUP2 DUP2 PUSH1 0x4 ADD DUP2 SWAP1 SSTORE POP PUSH1 0x1 DUP2 PUSH1 0x2 ADD PUSH0 PUSH2 0x100 EXP DUP2 SLOAD DUP2 PUSH1 0xFF MUL NOT AND SWAP1 DUP4 ISZERO ISZERO MUL OR SWAP1 SSTORE POP PUSH1 0x1 SLOAD PUSH32 0x52BE7C4E77B4DE76B7607D621492061FE13B58597E72DFB5E51AB8F6187ED141 DUP6 PUSH1 0x40 MLOAD PUSH2 0xB3C SWAP2 SWAP1 PUSH2 0x17B8 JUMP JUMPDEST PUSH1 0x40 MLOAD DUP1 SWAP2 SUB SWAP1 LOG2 POP POP POP POP JUMP JUMPDEST PUSH0 PUSH1 0x40 MLOAD SWAP1 POP SWAP1 JUMP JUMPDEST PUSH0 PUSH0 REVERT JUMPDEST PUSH0 PUSH0 REVERT JUMPDEST PUSH0 DUP2 SWAP1 POP SWAP2 SWAP1 POP JUMP JUMPDEST PUSH2 0xB6D DUP2 PUSH2 0xB5B JUMP JUMPDEST DUP2 EQ PUSH2 0xB77 JUMPI PUSH0 PUSH0 REVERT JUMPDEST POP JUMP JUMPDEST PUSH0 DUP2 CALLDATALOAD SWAP1 POP PUSH2 0xB88 DUP2 PUSH2 0xB64 JUMP JUMPDEST SWAP3 SWAP2 POP POP JUMP JUMPDEST PUSH0 PUSH0 REVERT JUMPDEST PUSH0 PUSH0 REVERT JUMPDEST PUSH0 PUSH1 0x1F NOT PUSH1 0x1F DUP4 ADD AND SWAP1 POP SWAP2 SWAP1 POP JUMP JUMPDEST PUSH32 0x4E487B7100000000000000000000000000000000000000000000000000000000 PUSH0 MSTORE PUSH1 0x41 PUSH1 0x4 MSTORE PUSH1 0x24 PUSH0 REVERT JUMPDEST PUSH2 0xBDC DUP3 PUSH2 0xB96 JUMP JUMPDEST DUP2 ADD DUP2 DUP2 LT PUSH8 0xFFFFFFFFFFFFFFFF DUP3 GT OR ISZERO PUSH2 0xBFB JUMPI PUSH2 0xBFA PUSH2 0xBA6 JUMP JUMPDEST JUMPDEST DUP1 PUSH1 0x40 MSTORE POP POP POP JUMP JUMPDEST PUSH0 PUSH2 0xC0D PUSH2 0xB4A JUMP JUMPDEST SWAP1 POP PUSH2 0xC19 DUP3 DUP3 PUSH2 0xBD3 JUMP JUMPDEST SWAP2 SWAP1 POP JUMP JUMPDEST PUSH0 PUSH8 0xFFFFFFFFFFFFFFFF DUP3 GT ISZERO PUSH2 0xC38 JUMPI PUSH2 0xC37 PUSH2 0xBA6 JUMP JUMPDEST JUMPDEST PUSH2 0xC41 DUP3 PUSH2 0xB96 JUMP JUMPDEST SWAP1 POP PUSH1 0x20 DUP2 ADD SWAP1 POP SWAP2 SWAP1 POP JUMP JUMPDEST DUP3 DUP2 DUP4 CALLDATACOPY PUSH0 DUP4 DUP4 ADD MSTORE POP POP POP JUMP JUMPDEST PUSH0 PUSH2 0xC6E PUSH2 0xC69 DUP5 PUSH2 0xC1E JUMP JUMPDEST PUSH2 0xC04 JUMP JUMPDEST SWAP1 POP DUP3 DUP2 MSTORE PUSH1 0x20 DUP2 ADD DUP5 DUP5 DUP5 ADD GT ISZERO PUSH2 0xC8A JUMPI PUSH2 0xC89 PUSH2 0xB92 JUMP JUMPDEST JUMPDEST PUSH2 0xC95 DUP5 DUP3 DUP6 PUSH2 0xC4E JUMP JUMPDEST POP SWAP4 SWAP3 POP POP POP JUMP JUMPDEST PUSH0 DUP3 PUSH1 0x1F DUP4 ADD SLT PUSH2 0xCB1 JUMPI PUSH2 0xCB0 PUSH2 0xB8E JUMP JUMPDEST JUMPDEST DUP2 CALLDATALOAD PUSH2 0xCC1 DUP5 DUP3 PUSH1 0x20 DUP7 ADD PUSH2 0xC5C JUMP JUMPDEST SWAP2 POP POP SWAP3 SWAP2 POP POP JUMP JUMPDEST PUSH0 PUSH0 PUSH1 0x40 DUP4 DUP6 SUB SLT ISZERO PUSH2 0xCE0 JUMPI PUSH2 0xCDF PUSH2 0xB53 JUMP JUMPDEST JUMPDEST PUSH0 PUSH2 0xCED DUP6 DUP3 DUP7 ADD PUSH2 0xB7A JUMP JUMPDEST SWAP3 POP POP PUSH1 0x20 DUP4 ADD CALLDATALOAD PUSH8 0xFFFFFFFFFFFFFFFF DUP2 GT ISZERO PUSH2 0xD0E JUMPI PUSH2 0xD0D PUSH2 0xB57 JUMP JUMPDEST JUMPDEST PUSH2 0xD1A DUP6 DUP3 DUP7 ADD PUSH2 0xC9D JUMP JUMPDEST SWAP2 POP POP SWAP3 POP SWAP3 SWAP1 POP JUMP JUMPDEST PUSH0 DUP2 SWAP1 POP SWAP2 SWAP1 POP JUMP JUMPDEST PUSH2 0xD36 DUP2 PUSH2 0xD24 JUMP JUMPDEST DUP2 EQ PUSH2 0xD40 JUMPI PUSH0 PUSH0 REVERT JUMPDEST POP JUMP JUMPDEST PUSH0 DUP2 CALLDATALOAD SWAP1 POP PUSH2 0xD51 DUP2 PUSH2 0xD2D JUMP JUMPDEST SWAP3 SWAP2 POP POP JUMP JUMPDEST PUSH0 PUSH0 PUSH0 PUSH1 0x60 DUP5 DUP7 SUB SLT ISZERO PUSH2 0xD6E JUMPI PUSH2 0xD6D PUSH2 0xB53 JUMP JUMPDEST JUMPDEST PUSH0 PUSH2 0xD7B DUP7 DUP3 DUP8 ADD PUSH2 0xB7A JUMP JUMPDEST SWAP4 POP POP PUSH1 0x20 PUSH2 0xD8C DUP7 DUP3 DUP8 ADD PUSH2 0xD43 JUMP JUMPDEST SWAP3 POP POP PUSH1 0x40 PUSH2 0xD9D DUP7 DUP3 DUP8 ADD PUSH2 0xB7A JUMP JUMPDEST SWAP2 POP POP SWAP3 POP SWAP3 POP SWAP3 JUMP JUMPDEST PUSH0 PUSH0 PUSH1 0x40 DUP4 DUP6 SUB SLT ISZERO PUSH2 0xDBD JUMPI PUSH2 0xDBC PUSH2 0xB53 JUMP JUMPDEST JUMPDEST PUSH0 PUSH2 0xDCA DUP6 DUP3 DUP7 ADD PUSH2 0xB7A JUMP JUMPDEST SWAP3 POP POP PUSH1 0x20 PUSH2 0xDDB DUP6 DUP3 DUP7 ADD PUSH2 0xB7A JUMP JUMPDEST SWAP2 POP POP SWAP3 POP SWAP3 SWAP1 POP JUMP JUMPDEST PUSH0 DUP2 MLOAD SWAP1 POP SWAP2 SWAP1 POP JUMP JUMPDEST PUSH0 DUP3 DUP3 MSTORE PUSH1 0x20 DUP3 ADD SWAP1 POP SWAP3 SWAP2 POP POP JUMP JUMPDEST DUP3 DUP2 DUP4 MCOPY PUSH0 DUP4 DUP4 ADD MSTORE POP POP POP JUMP JUMPDEST PUSH0 PUSH2 0xE17 DUP3 PUSH2 0xDE5 JUMP JUMPDEST PUSH2 0xE21 DUP2 DUP6 PUSH2 0xDEF JUMP JUMPDEST SWAP4 POP PUSH2 0xE31 DUP2 DUP6 PUSH1 0x20 DUP7 ADD PUSH2 0xDFF JUMP JUMPDEST PUSH2 0xE3A DUP2 PUSH2 0xB96 JUMP JUMPDEST DUP5 ADD SWAP2 POP POP SWAP3 SWAP2 POP POP JUMP JUMPDEST PUSH2 0xE4E DUP2 PUSH2 0xB5B JUMP JUMPDEST DUP3 MSTORE POP POP JUMP JUMPDEST PUSH0 PUSH1 0x40 DUP3 ADD SWAP1 POP DUP2 DUP2 SUB PUSH0 DUP4 ADD MSTORE PUSH2 0xE6C DUP2 DUP6 PUSH2 0xE0D JUMP JUMPDEST SWAP1 POP PUSH2 0xE7B PUSH1 0x20 DUP4 ADD DUP5 PUSH2 0xE45 JUMP JUMPDEST SWAP4 SWAP3 POP POP POP JUMP JUMPDEST PUSH0 PUSH20 0xFFFFFFFFFFFFFFFFFFFFFFFFFFFFFFFFFFFFFFFF DUP3 AND SWAP1 POP SWAP2 SWAP1 POP JUMP JUMPDEST PUSH0 PUSH2 0xEAB DUP3 PUSH2 0xE82 JUMP JUMPDEST SWAP1 POP SWAP2 SWAP1 POP JUMP JUMPDEST PUSH2 0xEBB DUP2 PUSH2 0xEA1 JUMP JUMPDEST DUP3 MSTORE POP POP JUMP JUMPDEST PUSH0 PUSH1 0x20 DUP3 ADD SWAP1 POP PUSH2 0xED4 PUSH0 DUP4 ADD DUP5 PUSH2 0xEB2 JUMP JUMPDEST SWAP3 SWAP2 POP POP JUMP JUMPDEST PUSH0 PUSH1 0x20 DUP3 ADD SWAP1 POP PUSH2 0xEED PUSH0 DUP4 ADD DUP5 PUSH2 0xE45 JUMP JUMPDEST SWAP3 SWAP2 POP POP JUMP JUMPDEST PUSH0 PUSH0 PUSH1 0x40 DUP4 DUP6 SUB SLT ISZERO PUSH2 0xF09 JUMPI PUSH2 0xF08 PUSH2 0xB53 JUMP JUMPDEST JUMPDEST PUSH0 PUSH2 0xF16 DUP6 DUP3 DUP7 ADD PUSH2 0xB7A JUMP JUMPDEST SWAP3 POP POP PUSH1 0x20 PUSH2 0xF27 DUP6 DUP3 DUP7 ADD PUSH2 0xD43 JUMP JUMPDEST SWAP2 POP POP SWAP3 POP SWAP3 SWAP1 POP JUMP JUMPDEST PUSH0 PUSH1 0x20 DUP3 DUP5 SUB SLT ISZERO PUSH2 0xF46 JUMPI PUSH2 0xF45 PUSH2 0xB53 JUMP JUMPDEST JUMPDEST PUSH0 PUSH2 0xF53 DUP5 DUP3 DUP6 ADD PUSH2 0xB7A JUMP JUMPDEST SWAP2 POP POP SWAP3 SWAP2 POP POP JUMP JUMPDEST PUSH0 DUP2 ISZERO ISZERO SWAP1 POP SWAP2 SWAP1 POP JUMP JUMPDEST PUSH2 0xF70 DUP2 PUSH2 0xF5C JUMP JUMPDEST DUP3 MSTORE POP POP JUMP JUMPDEST PUSH0 PUSH1 0xA0 DUP3 ADD SWAP1 POP DUP2 DUP2 SUB PUSH0 DUP4 ADD MSTORE PUSH2 0xF8E DUP2 DUP9 PUSH2 0xE0D JUMP JUMPDEST SWAP1 POP PUSH2 0xF9D PUSH1 0x20 DUP4 ADD DUP8 PUSH2 0xF67 JUMP JUMPDEST PUSH2 0xFAA PUSH1 0x40 DUP4 ADD DUP7 PUSH2 0xE45 JUMP JUMPDEST PUSH2 0xFB7 PUSH1 0x60 DUP4 ADD DUP6 PUSH2 0xE45 JUMP JUMPDEST PUSH2 0xFC4 PUSH1 0x80 DUP4 ADD DUP5 PUSH2 0xE45 JUMP JUMPDEST SWAP7 SWAP6 POP POP POP POP POP POP JUMP JUMPDEST PUSH0 PUSH0 PUSH0 PUSH1 0x60 DUP5 DUP7 SUB SLT ISZERO PUSH2 0xFE5 JUMPI PUSH2 0xFE4 PUSH2 0xB53 JUMP JUMPDEST JUMPDEST PUSH0 DUP5 ADD CALLDATALOAD PUSH8 0xFFFFFFFFFFFFFFFF DUP2 GT ISZERO PUSH2 0x1002 JUMPI PUSH2 0x1001 PUSH2 0xB57 JUMP JUMPDEST JUMPDEST PUSH2 0x100E DUP7 DUP3 DUP8 ADD PUSH2 0xC9D JUMP JUMPDEST SWAP4 POP POP PUSH1 0x20 PUSH2 0x101F DUP7 DUP3 DUP8 ADD PUSH2 0xB7A JUMP JUMPDEST SWAP3 POP POP PUSH1 0x40 PUSH2 0x1030 DUP7 DUP3 DUP8 ADD PUSH2 0xB7A JUMP JUMPDEST SWAP2 POP POP SWAP3 POP SWAP3 POP SWAP3 JUMP JUMPDEST PUSH32 0x4E6F7420617574686F72697A6564000000000000000000000000000000000000 PUSH0 DUP3 ADD MSTORE POP JUMP JUMPDEST PUSH0 PUSH2 0x106E PUSH1 0xE DUP4 PUSH2 0xDEF JUMP JUMPDEST SWAP2 POP PUSH2 0x1079 DUP3 PUSH2 0x103A JUMP JUMPDEST PUSH1 0x20 DUP3 ADD SWAP1 POP SWAP2 SWAP1 POP JUMP JUMPDEST PUSH0 PUSH1 0x20 DUP3 ADD SWAP1 POP DUP2 DUP2 SUB PUSH0 DUP4 ADD MSTORE PUSH2 0x109B DUP2 PUSH2 0x1062 JUMP JUMPDEST SWAP1 POP SWAP2 SWAP1 POP JUMP JUMPDEST PUSH32 0x456C656374696F6E206E6F7420666F756E640000000000000000000000000000 PUSH0 DUP3 ADD MSTORE POP JUMP JUMPDEST PUSH0 PUSH2 0x10D6 PUSH1 0x12 DUP4 PUSH2 0xDEF JUMP JUMPDEST SWAP2 POP PUSH2 0x10E1 DUP3 PUSH2 0x10A2 JUMP JUMPDEST PUSH1 0x20 DUP3 ADD SWAP1 POP SWAP2 SWAP1 POP JUMP JUMPDEST PUSH0 PUSH1 0x20 DUP3 ADD SWAP1 POP DUP2 DUP2 SUB PUSH0 DUP4 ADD MSTORE PUSH2 0x1103 DUP2 PUSH2 0x10CA JUMP JUMPDEST SWAP1 POP SWAP2 SWAP1 POP JUMP JUMPDEST PUSH32 0x4E487B7100000000000000000000000000000000000000000000000000000000 PUSH0 MSTORE PUSH1 0x11 PUSH1 0x4 MSTORE PUSH1 0x24 PUSH0 REVERT JUMPDEST PUSH0 PUSH2 0x1141 DUP3 PUSH2 0xB5B JUMP JUMPDEST SWAP2 POP PUSH32 0xFFFFFFFFFFFFFFFFFFFFFFFFFFFFFFFFFFFFFFFFFFFFFFFFFFFFFFFFFFFFFFFF DUP3 SUB PUSH2 0x1173 JUMPI PUSH2 0x1172 PUSH2 0x110A JUMP JUMPDEST JUMPDEST PUSH1 0x1 DUP3 ADD SWAP1 POP SWAP2 SWAP1 POP JUMP JUMPDEST PUSH32 0x4E487B7100000000000000000000000000000000000000000000000000000000 PUSH0 MSTORE PUSH1 0x22 PUSH1 0x4 MSTORE PUSH1 0x24 PUSH0 REVERT JUMPDEST PUSH0 PUSH1 0x2 DUP3 DIV SWAP1 POP PUSH1 0x1 DUP3 AND DUP1 PUSH2 0x11C2 JUMPI PUSH1 0x7F DUP3 AND SWAP2 POP JUMPDEST PUSH1 0x20 DUP3 LT DUP2 SUB PUSH2 0x11D5 JUMPI PUSH2 0x11D4 PUSH2 0x117E JUMP JUMPDEST JUMPDEST POP SWAP2 SWAP1 POP JUMP JUMPDEST PUSH0 DUP2 SWAP1 POP DUP2 PUSH0 MSTORE PUSH1 0x20 PUSH0 KECCAK256 SWAP1 POP SWAP2 SWAP1 POP JUMP JUMPDEST PUSH0 PUSH1 0x20 PUSH1 0x1F DUP4 ADD DIV SWAP1 POP SWAP2 SWAP1 POP JUMP JUMPDEST PUSH0 DUP3 DUP3 SHL SWAP1 POP SWAP3 SWAP2 POP POP JUMP JUMPDEST PUSH0 PUSH1 0x8 DUP4 MUL PUSH2 0x1237 PUSH32 0xFFFFFFFFFFFFFFFFFFFFFFFFFFFFFFFFFFFFFFFFFFFFFFFFFFFFFFFFFFFFFFFF DUP3 PUSH2 0x11FC JUMP JUMPDEST PUSH2 0x1241 DUP7 DUP4 PUSH2 0x11FC JUMP JUMPDEST SWAP6 POP DUP1 NOT DUP5 AND SWAP4 POP DUP1 DUP7 AND DUP5 OR SWAP3 POP POP POP SWAP4 SWAP3 POP POP POP JUMP JUMPDEST PUSH0 DUP2 SWAP1 POP SWAP2 SWAP1 POP JUMP JUMPDEST PUSH0 PUSH2 0x127C PUSH2 0x1277 PUSH2 0x1272 DUP5 PUSH2 0xB5B JUMP JUMPDEST PUSH2 0x1259 JUMP JUMPDEST PUSH2 0xB5B JUMP JUMPDEST SWAP1 POP SWAP2 SWAP1 POP JUMP JUMPDEST PUSH0 DUP2 SWAP1 POP SWAP2 SWAP1 POP JUMP JUMPDEST PUSH2 0x1295 DUP4 PUSH2 0x1262 JUMP JUMPDEST PUSH2 0x12A9 PUSH2 0x12A1 DUP3 PUSH2 0x1283 JUMP JUMPDEST DUP5 DUP5 SLOAD PUSH2 0x1208 JUMP JUMPDEST DUP3 SSTORE POP POP POP POP JUMP JUMPDEST PUSH0 PUSH0 SWAP1 POP SWAP1 JUMP JUMPDEST PUSH2 0x12C0 PUSH2 0x12B1 JUMP JUMPDEST PUSH2 0x12CB DUP2 DUP5 DUP5 PUSH2 0x128C JUMP JUMPDEST POP POP POP JUMP JUMPDEST JUMPDEST DUP2 DUP2 LT ISZERO PUSH2 0x12EE JUMPI PUSH2 0x12E3 PUSH0 DUP3 PUSH2 0x12B8 JUMP JUMPDEST PUSH1 0x1 DUP2 ADD SWAP1 POP PUSH2 0x12D1 JUMP JUMPDEST POP POP JUMP JUMPDEST PUSH1 0x1F DUP3 GT ISZERO PUSH2 0x1333 JUMPI PUSH2 0x1304 DUP2 PUSH2 0x11DB JUMP JUMPDEST PUSH2 0x130D DUP5 PUSH2 0x11ED JUMP JUMPDEST DUP2 ADD PUSH1 0x20 DUP6 LT ISZERO PUSH2 0x131C JUMPI DUP2 SWAP1 POP JUMPDEST PUSH2 0x1330 PUSH2 0x1328 DUP6 PUSH2 0x11ED JUMP JUMPDEST DUP4 ADD DUP3 PUSH2 0x12D0 JUMP JUMPDEST POP POP JUMPDEST POP POP POP JUMP JUMPDEST PUSH0 DUP3 DUP3 SHR SWAP1 POP SWAP3 SWAP2 POP POP JUMP JUMPDEST PUSH0 PUSH2 0x1353 PUSH0 NOT DUP5 PUSH1 0x8 MUL PUSH2 0x1338 JUMP JUMPDEST NOT DUP1 DUP4 AND SWAP2 POP POP SWAP3 SWAP2 POP POP JUMP JUMPDEST PUSH0 PUSH2 0x136B DUP4 DUP4 PUSH2 0x1344 JUMP JUMPDEST SWAP2 POP DUP3 PUSH1 0x2 MUL DUP3 OR SWAP1 POP SWAP3 SWAP2 POP POP JUMP JUMPDEST PUSH2 0x1384 DUP3 PUSH2 0xDE5 JUMP JUMPDEST PUSH8 0xFFFFFFFFFFFFFFFF DUP2 GT ISZERO PUSH2 0x139D JUMPI PUSH2 0x139C PUSH2 0xBA6 JUMP JUMPDEST JUMPDEST PUSH2 0x13A7 DUP3 SLOAD PUSH2 0x11AB JUMP JUMPDEST PUSH2 0x13B2 DUP3 DUP3 DUP6 PUSH2 0x12F2 JUMP JUMPDEST PUSH0 PUSH1 0x20 SWAP1 POP PUSH1 0x1F DUP4 GT PUSH1 0x1 DUP2 EQ PUSH2 0x13E3 JUMPI PUSH0 DUP5 ISZERO PUSH2 0x13D1 JUMPI DUP3 DUP8 ADD MLOAD SWAP1 POP JUMPDEST PUSH2 0x13DB DUP6 DUP3 PUSH2 0x1360 JUMP JUMPDEST DUP7 SSTORE POP PUSH2 0x1442 JUMP JUMPDEST PUSH1 0x1F NOT DUP5 AND PUSH2 0x13F1 DUP7 PUSH2 0x11DB JUMP JUMPDEST PUSH0 JUMPDEST DUP3 DUP2 LT ISZERO PUSH2 0x1418 JUMPI DUP5 DUP10 ADD MLOAD DUP3 SSTORE PUSH1 0x1 DUP3 ADD SWAP2 POP PUSH1 0x20 DUP6 ADD SWAP5 POP PUSH1 0x20 DUP2 ADD SWAP1 POP PUSH2 0x13F3 JUMP JUMPDEST DUP7 DUP4 LT ISZERO PUSH2 0x1435 JUMPI DUP5 DUP10 ADD MLOAD PUSH2 0x1431 PUSH1 0x1F DUP10 AND DUP3 PUSH2 0x1344 JUMP JUMPDEST DUP4 SSTORE POP JUMPDEST PUSH1 0x1 PUSH1 0x2 DUP9 MUL ADD DUP9 SSTORE POP POP POP JUMPDEST POP POP POP POP POP POP JUMP JUMPDEST PUSH0 PUSH1 0x40 DUP3 ADD SWAP1 POP PUSH2 0x145D PUSH0 DUP4 ADD DUP6 PUSH2 0xE45 JUMP JUMPDEST DUP2 DUP2 SUB PUSH1 0x20 DUP4 ADD MSTORE PUSH2 0x146F DUP2 DUP5 PUSH2 0xE0D JUMP JUMPDEST SWAP1 POP SWAP4 SWAP3 POP POP POP JUMP JUMPDEST PUSH32 0x456C656374696F6E20696E616374697665000000000000000000000000000000 PUSH0 DUP3 ADD MSTORE POP JUMP JUMPDEST PUSH0 PUSH2 0x14AC PUSH1 0x11 DUP4 PUSH2 0xDEF JUMP JUMPDEST SWAP2 POP PUSH2 0x14B7 DUP3 PUSH2 0x1478 JUMP JUMPDEST PUSH1 0x20 DUP3 ADD SWAP1 POP SWAP2 SWAP1 POP JUMP JUMPDEST PUSH0 PUSH1 0x20 DUP3 ADD SWAP1 POP DUP2 DUP2 SUB PUSH0 DUP4 ADD MSTORE PUSH2 0x14D9 DUP2 PUSH2 0x14A0 JUMP JUMPDEST SWAP1 POP SWAP2 SWAP1 POP JUMP JUMPDEST PUSH32 0x566F74696E67206E6F7420737461727465640000000000000000000000000000 PUSH0 DUP3 ADD MSTORE POP JUMP JUMPDEST PUSH0 PUSH2 0x1514 PUSH1 0x12 DUP4 PUSH2 0xDEF JUMP JUMPDEST SWAP2 POP PUSH2 0x151F DUP3 PUSH2 0x14E0 JUMP JUMPDEST PUSH1 0x20 DUP3 ADD SWAP1 POP SWAP2 SWAP1 POP JUMP JUMPDEST PUSH0 PUSH1 0x20 DUP3 ADD SWAP1 POP DUP2 DUP2 SUB PUSH0 DUP4 ADD MSTORE PUSH2 0x1541 DUP2 PUSH2 0x1508 JUMP JUMPDEST SWAP1 POP SWAP2 SWAP1 POP JUMP JUMPDEST PUSH32 0x566F74696E6720656E6465640000000000000000000000000000000000000000 PUSH0 DUP3 ADD MSTORE POP JUMP JUMPDEST PUSH0 PUSH2 0x157C PUSH1 0xC DUP4 PUSH2 0xDEF JUMP JUMPDEST SWAP2 POP PUSH2 0x1587 DUP3 PUSH2 0x1548 JUMP JUMPDEST PUSH1 0x20 DUP3 ADD SWAP1 POP SWAP2 SWAP1 POP JUMP JUMPDEST PUSH0 PUSH1 0x20 DUP3 ADD SWAP1 POP DUP2 DUP2 SUB PUSH0 DUP4 ADD MSTORE PUSH2 0x15A9 DUP2 PUSH2 0x1570 JUMP JUMPDEST SWAP1 POP SWAP2 SWAP1 POP JUMP JUMPDEST PUSH32 0x4E6F742072656769737465726564000000000000000000000000000000000000 PUSH0 DUP3 ADD MSTORE POP JUMP JUMPDEST PUSH0 PUSH2 0x15E4 PUSH1 0xE DUP4 PUSH2 0xDEF JUMP JUMPDEST SWAP2 POP PUSH2 0x15EF DUP3 PUSH2 0x15B0 JUMP JUMPDEST PUSH1 0x20 DUP3 ADD SWAP1 POP SWAP2 SWAP1 POP JUMP JUMPDEST PUSH0 PUSH1 0x20 DUP3 ADD SWAP1 POP DUP2 DUP2 SUB PUSH0 DUP4 ADD MSTORE PUSH2 0x1611 DUP2 PUSH2 0x15D8 JUMP JUMPDEST SWAP1 POP SWAP2 SWAP1 POP JUMP JUMPDEST PUSH32 0x416C726561647920766F74656400000000000000000000000000000000000000 PUSH0 DUP3 ADD MSTORE POP JUMP JUMPDEST PUSH0 PUSH2 0x164C PUSH1 0xD DUP4 PUSH2 0xDEF JUMP JUMPDEST SWAP2 POP PUSH2 0x1657 DUP3 PUSH2 0x1618 JUMP JUMPDEST PUSH1 0x20 DUP3 ADD SWAP1 POP SWAP2 SWAP1 POP JUMP JUMPDEST PUSH0 PUSH1 0x20 DUP3 ADD SWAP1 POP DUP2 DUP2 SUB PUSH0 DUP4 ADD MSTORE PUSH2 0x1679 DUP2 PUSH2 0x1640 JUMP JUMPDEST SWAP1 POP SWAP2 SWAP1 POP JUMP JUMPDEST PUSH32 0x43616E646964617465206E6F7420666F756E6400000000000000000000000000 PUSH0 DUP3 ADD MSTORE POP JUMP JUMPDEST PUSH0 PUSH2 0x16B4 PUSH1 0x13 DUP4 PUSH2 0xDEF JUMP JUMPDEST SWAP2 POP PUSH2 0x16BF DUP3 PUSH2 0x1680 JUMP JUMPDEST PUSH1 0x20 DUP3 ADD SWAP1 POP SWAP2 SWAP1 POP JUMP JUMPDEST PUSH0 PUSH1 0x20 DUP3 ADD SWAP1 POP DUP2 DUP2 SUB PUSH0 DUP4 ADD MSTORE PUSH2 0x16E1 DUP2 PUSH2 0x16A8 JUMP JUMPDEST SWAP1 POP SWAP2 SWAP1 POP JUMP JUMPDEST PUSH32 0x566F74657220616C726561647920726567697374657265640000000000000000 PUSH0 DUP3 ADD MSTORE POP JUMP JUMPDEST PUSH0 PUSH2 0x171C PUSH1 0x18 DUP4 PUSH2 0xDEF JUMP JUMPDEST SWAP2 POP PUSH2 0x1727 DUP3 PUSH2 0x16E8 JUMP JUMPDEST PUSH1 0x20 DUP3 ADD SWAP1 POP SWAP2 SWAP1 POP JUMP JUMPDEST PUSH0 PUSH1 0x20 DUP3 ADD SWAP1 POP DUP2 DUP2 SUB PUSH0 DUP4 ADD MSTORE PUSH2 0x1749 DUP2 PUSH2 0x1710 JUMP JUMPDEST SWAP1 POP SWAP2 SWAP1 POP JUMP JUMPDEST PUSH32 0x496E76616C69642074696D652072616E67650000000000000000000000000000 PUSH0 DUP3 ADD MSTORE POP JUMP JUMPDEST PUSH0 PUSH2 0x1784 PUSH1 0x12 DUP4 PUSH2 0xDEF JUMP JUMPDEST SWAP2 POP PUSH2 0x178F DUP3 PUSH2 0x1750 JUMP JUMPDEST PUSH1 0x20 DUP3 ADD SWAP1 POP SWAP2 SWAP1 POP JUMP JUMPDEST PUSH0 PUSH1 0x20 DUP3 ADD SWAP1 POP DUP2 DUP2 SUB PUSH0 DUP4 ADD MSTORE PUSH2 0x17B1 DUP2 PUSH2 0x1778 JUMP JUMPDEST SWAP1 POP SWAP2 SWAP1 POP JUMP JUMPDEST PUSH0 PUSH1 0x20 DUP3 ADD SWAP1 POP DUP2 DUP2 SUB PUSH0 DUP4 ADD MSTORE PUSH2 0x17D0 DUP2 DUP5 PUSH2 0xE0D JUMP JUMPDEST SWAP1 POP SWAP3 SWAP2 POP POP JUMP INVALID LOG2 PUSH5 0x6970667358 0x22 SLT KECCAK256 PC 0xCB PREVRANDAO 0xCE RETURNCONTRACT 0xB PUSH10 0x69A6CFA19E14BD9F0CC7 0x22 0xD3 ADD 0xAF 0xAE TLOAD 0xBA 0xCC ADD SIGNEXTEND 0xDC 0xA6 SWAP3 DUP7 PUSH13 0x64736F6C634300081E00330000 "
		},
		"gasEstimates": {
			"creation": {
				"codeDepositCost": "1231600",
				"executionCost": "25543",
				"totalCost": "1257143"
			},
			"external": {
				"addCandidate(uint256,string)": "infinite",
				"createElection(string,uint256,uint256)": "infinite",
				"electionCount()": "2425",
				"getCandidate(uint256,uint256)": "infinite",
				"getElectionMeta(uint256)": "infinite",
				"owner()": "2574",
				"registerVoter(uint256,bytes32)": "57355",
				"voteOnBehalf(uint256,bytes32,uint256)": "infinite"
			}
		},
		"methodIdentifiers": {
			"addCandidate(uint256,string)": "1750a3d0",
			"createElection(string,uint256,uint256)": "f49a7a17",
			"electionCount()": "997d2830",
			"getCandidate(uint256,uint256)": "4bd46448",
			"getElectionMeta(uint256)": "ed950a5a",
			"owner()": "8da5cb5b",
			"registerVoter(uint256,bytes32)": "d2bd1738",
			"voteOnBehalf(uint256,bytes32,uint256)": "372ee915"
		}
	},
	"abi": [
		{
			"inputs": [],
			"stateMutability": "nonpayable",
			"type": "constructor"
		},
		{
			"anonymous": false,
			"inputs": [
				{
					"indexed": true,
					"internalType": "uint256",
					"name": "electionId",
					"type": "uint256"
				},
				{
					"indexed": false,
					"internalType": "uint256",
					"name": "candidateId",
					"type": "uint256"
				},
				{
					"indexed": false,
					"internalType": "string",
					"name": "name",
					"type": "string"
				}
			],
			"name": "CandidateAdded",
			"type": "event"
		},
		{
			"anonymous": false,
			"inputs": [
				{
					"indexed": true,
					"internalType": "uint256",
					"name": "electionId",
					"type": "uint256"
				},
				{
					"indexed": false,
					"internalType": "string",
					"name": "name",
					"type": "string"
				}
			],
			"name": "ElectionCreated",
			"type": "event"
		},
		{
			"anonymous": false,
			"inputs": [
				{
					"indexed": true,
					"internalType": "uint256",
					"name": "electionId",
					"type": "uint256"
				},
				{
					"indexed": true,
					"internalType": "bytes32",
					"name": "voterIdHash",
					"type": "bytes32"
				},
				{
					"indexed": true,
					"internalType": "uint256",
					"name": "candidateId",
					"type": "uint256"
				}
			],
			"name": "VoteCast",
			"type": "event"
		},
		{
			"anonymous": false,
			"inputs": [
				{
					"indexed": true,
					"internalType": "uint256",
					"name": "electionId",
					"type": "uint256"
				},
				{
					"indexed": true,
					"internalType": "bytes32",
					"name": "voterIdHash",
					"type": "bytes32"
				}
			],
			"name": "VoterRegistered",
			"type": "event"
		},
		{
			"inputs": [
				{
					"internalType": "uint256",
					"name": "_electionId",
					"type": "uint256"
				},
				{
					"internalType": "string",
					"name": "_name",
					"type": "string"
				}
			],
			"name": "addCandidate",
			"outputs": [],
			"stateMutability": "nonpayable",
			"type": "function"
		},
		{
			"inputs": [
				{
					"internalType": "string",
					"name": "_name",
					"type": "string"
				},
				{
					"internalType": "uint256",
					"name": "_startTime",
					"type": "uint256"
				},
				{
					"internalType": "uint256",
					"name": "_endTime",
					"type": "uint256"
				}
			],
			"name": "createElection",
			"outputs": [],
			"stateMutability": "nonpayable",
			"type": "function"
		},
		{
			"inputs": [],
			"name": "electionCount",
			"outputs": [
				{
					"internalType": "uint256",
					"name": "",
					"type": "uint256"
				}
			],
			"stateMutability": "view",
			"type": "function"
		},
		{
			"inputs": [
				{
					"internalType": "uint256",
					"name": "electionId",
					"type": "uint256"
				},
				{
					"internalType": "uint256",
					"name": "candidateId",
					"type": "uint256"
				}
			],
			"name": "getCandidate",
			"outputs": [
				{
					"internalType": "string",
					"name": "name",
					"type": "string"
				},
				{
					"internalType": "uint256",
					"name": "votes",
					"type": "uint256"
				}
			],
			"stateMutability": "view",
			"type": "function"
		},
		{
			"inputs": [
				{
					"internalType": "uint256",
					"name": "electionId",
					"type": "uint256"
				}
			],
			"name": "getElectionMeta",
			"outputs": [
				{
					"internalType": "string",
					"name": "name",
					"type": "string"
				},
				{
					"internalType": "bool",
					"name": "active",
					"type": "bool"
				},
				{
					"internalType": "uint256",
					"name": "start",
					"type": "uint256"
				},
				{
					"internalType": "uint256",
					"name": "end",
					"type": "uint256"
				},
				{
					"internalType": "uint256",
					"name": "candidateCount",
					"type": "uint256"
				}
			],
			"stateMutability": "view",
			"type": "function"
		},
		{
			"inputs": [],
			"name": "owner",
			"outputs": [
				{
					"internalType": "address",
					"name": "",
					"type": "address"
				}
			],
			"stateMutability": "view",
			"type": "function"
		},
		{
			"inputs": [
				{
					"internalType": "uint256",
					"name": "_electionId",
					"type": "uint256"
				},
				{
					"internalType": "bytes32",
					"name": "voterIdHash",
					"type": "bytes32"
				}
			],
			"name": "registerVoter",
			"outputs": [],
			"stateMutability": "nonpayable",
			"type": "function"
		},
		{
			"inputs": [
				{
					"internalType": "uint256",
					"name": "_electionId",
					"type": "uint256"
				},
				{
					"internalType": "bytes32",
					"name": "voterIdHash",
					"type": "bytes32"
				},
				{
					"internalType": "uint256",
					"name": "candidateId",
					"type": "uint256"
				}
			],
			"name": "voteOnBehalf",
			"outputs": [],
			"stateMutability": "nonpayable",
			"type": "function"
		}
	]
}